{
  "contractName": "supplychain",
  "abi": [
    {
      "inputs": [
        {
          "internalType": "string",
          "name": "retailer",
          "type": "string"
        },
        {
          "internalType": "string",
          "name": "rproduct",
          "type": "string"
        },
        {
          "internalType": "string",
          "name": "rquantity",
          "type": "string"
        },
        {
          "internalType": "string",
          "name": "rprice",
          "type": "string"
        }
      ],
      "name": "raddOrder",
      "outputs": [],
      "stateMutability": "nonpayable",
      "type": "function"
    },
    {
      "inputs": [],
      "name": "rviewOrders",
      "outputs": [
        {
          "internalType": "string[]",
          "name": "",
          "type": "string[]"
        },
        {
          "internalType": "string[]",
          "name": "",
          "type": "string[]"
        },
        {
          "internalType": "string[]",
          "name": "",
          "type": "string[]"
        },
        {
          "internalType": "string[]",
          "name": "",
          "type": "string[]"
        },
        {
          "internalType": "uint256[]",
          "name": "",
          "type": "uint256[]"
        },
        {
          "internalType": "uint256[]",
          "name": "",
          "type": "uint256[]"
        }
      ],
      "stateMutability": "view",
      "type": "function",
      "constant": true
    },
    {
      "inputs": [
        {
          "internalType": "uint256",
          "name": "orderid",
          "type": "uint256"
        },
        {
          "internalType": "uint256",
          "name": "status",
          "type": "uint256"
        }
      ],
      "name": "rupdateOrder",
      "outputs": [],
      "stateMutability": "nonpayable",
      "type": "function"
    },
    {
      "inputs": [
        {
          "internalType": "string",
          "name": "cemail",
          "type": "string"
        },
        {
          "internalType": "string",
          "name": "cproduct",
          "type": "string"
        },
        {
          "internalType": "string",
          "name": "cquantity",
          "type": "string"
        },
        {
          "internalType": "string",
          "name": "cretailer",
          "type": "string"
        }
      ],
      "name": "caddOrder",
      "outputs": [],
      "stateMutability": "nonpayable",
      "type": "function"
    },
    {
      "inputs": [],
      "name": "cviewOrders",
      "outputs": [
        {
          "internalType": "string[]",
          "name": "",
          "type": "string[]"
        },
        {
          "internalType": "string[]",
          "name": "",
          "type": "string[]"
        },
        {
          "internalType": "string[]",
          "name": "",
          "type": "string[]"
        },
        {
          "internalType": "string[]",
          "name": "",
          "type": "string[]"
        },
        {
          "internalType": "uint256[]",
          "name": "",
          "type": "uint256[]"
        },
        {
          "internalType": "uint256[]",
          "name": "",
          "type": "uint256[]"
        }
      ],
      "stateMutability": "view",
      "type": "function",
      "constant": true
    },
    {
      "inputs": [
        {
          "internalType": "uint256",
          "name": "orderid",
          "type": "uint256"
        },
        {
          "internalType": "uint256",
          "name": "status",
          "type": "uint256"
        }
      ],
      "name": "cupdateOrder",
      "outputs": [],
      "stateMutability": "nonpayable",
      "type": "function"
    }
  ],
  "bytecode": "0x60806040526000600c556000600d5534801561001a57600080fd5b506115e28061002a6000396000f3fe608060405234801561001057600080fd5b50600436106100625760003560e01c806362966449146100675780638db1ba7814610083578063977f5a02146100a6578063b1fb0824146100c9578063ea04876c146100e5578063eccb327b14610101575b600080fd5b610081600480360381019061007c9190610d0d565b61011d565b005b61008b61018e565b60405161009d96959493929190610f5d565b60405180910390f35b6100ae6105a7565b6040516100c096959493929190610f5d565b60405180910390f35b6100e360048036038101906100de919061111d565b6109c0565b005b6100ff60048036038101906100fa919061111d565b610b09565b005b61011b60048036038101906101169190610d0d565b610c52565b005b60005b600380549050811015610189578260038281548110610142576101416111f4565b5b906000526020600020015403610176578160048281548110610167576101666111f4565b5b90600052602060002001819055505b808061018190611252565b915050610120565b505050565b60608060608060608060056000600160026003600485805480602002602001604051908101604052809291908181526020016000905b828210156102705783829060005260206000200180546101e3906112c9565b80601f016020809104026020016040519081016040528092919081815260200182805461020f906112c9565b801561025c5780601f106102315761010080835404028352916020019161025c565b820191906000526020600020905b81548152906001019060200180831161023f57829003601f168201915b5050505050815260200190600101906101c4565b50505050955084805480602002602001604051908101604052809291908181526020016000905b828210156103435783829060005260206000200180546102b6906112c9565b80601f01602080910402602001604051908101604052809291908181526020018280546102e2906112c9565b801561032f5780601f106103045761010080835404028352916020019161032f565b820191906000526020600020905b81548152906001019060200180831161031257829003601f168201915b505050505081526020019060010190610297565b50505050945083805480602002602001604051908101604052809291908181526020016000905b82821015610416578382906000526020600020018054610389906112c9565b80601f01602080910402602001604051908101604052809291908181526020018280546103b5906112c9565b80156104025780601f106103d757610100808354040283529160200191610402565b820191906000526020600020905b8154815290600101906020018083116103e557829003601f168201915b50505050508152602001906001019061036a565b50505050935082805480602002602001604051908101604052809291908181526020016000905b828210156104e957838290600052602060002001805461045c906112c9565b80601f0160208091040260200160405190810160405280929190818152602001828054610488906112c9565b80156104d55780601f106104aa576101008083540402835291602001916104d5565b820191906000526020600020905b8154815290600101906020018083116104b857829003601f168201915b50505050508152602001906001019061043d565b5050505092508180548060200260200160405190810160405280929190818152602001828054801561053a57602002820191906000526020600020905b815481526020019060010190808311610526575b505050505091508080548060200260200160405190810160405280929190818152602001828054801561058c57602002820191906000526020600020905b815481526020019060010190808311610578575b50505050509050955095509550955095509550909192939495565b6060806060806060806006600760086009600a600b85805480602002602001604051908101604052809291908181526020016000905b828210156106895783829060005260206000200180546105fc906112c9565b80601f0160208091040260200160405190810160405280929190818152602001828054610628906112c9565b80156106755780601f1061064a57610100808354040283529160200191610675565b820191906000526020600020905b81548152906001019060200180831161065857829003601f168201915b5050505050815260200190600101906105dd565b50505050955084805480602002602001604051908101604052809291908181526020016000905b8282101561075c5783829060005260206000200180546106cf906112c9565b80601f01602080910402602001604051908101604052809291908181526020018280546106fb906112c9565b80156107485780601f1061071d57610100808354040283529160200191610748565b820191906000526020600020905b81548152906001019060200180831161072b57829003601f168201915b5050505050815260200190600101906106b0565b50505050945083805480602002602001604051908101604052809291908181526020016000905b8282101561082f5783829060005260206000200180546107a2906112c9565b80601f01602080910402602001604051908101604052809291908181526020018280546107ce906112c9565b801561081b5780601f106107f05761010080835404028352916020019161081b565b820191906000526020600020905b8154815290600101906020018083116107fe57829003601f168201915b505050505081526020019060010190610783565b50505050935082805480602002602001604051908101604052809291908181526020016000905b82821015610902578382906000526020600020018054610875906112c9565b80601f01602080910402602001604051908101604052809291908181526020018280546108a1906112c9565b80156108ee5780601f106108c3576101008083540402835291602001916108ee565b820191906000526020600020905b8154815290600101906020018083116108d157829003601f168201915b505050505081526020019060010190610856565b5050505092508180548060200260200160405190810160405280929190818152602001828054801561095357602002820191906000526020600020905b81548152602001906001019080831161093f575b50505050509150808054806020026020016040519081016040528092919081815260200182805480156109a557602002820191906000526020600020905b815481526020019060010190808311610991575b50505050509050955095509550955095509550909192939495565b6001600c60008282546109d391906112fa565b92505081905550600584908060018154018082558091505060019003906000526020600020016000909190919091509081610a0e91906114da565b506003600c549080600181540180825580915050600190039060005260206000200160009091909190915055600083908060018154018082558091505060019003906000526020600020016000909190919091509081610a6e91906114da565b50600182908060018154018082558091505060019003906000526020600020016000909190919091509081610aa391906114da565b50600281908060018154018082558091505060019003906000526020600020016000909190919091509081610ad891906114da565b5060046000908060018154018082558091505060019003906000526020600020016000909190919091505550505050565b6001600d6000828254610b1c91906112fa565b92505081905550600684908060018154018082558091505060019003906000526020600020016000909190919091509081610b5791906114da565b50600a600d549080600181540180825580915050600190039060005260206000200160009091909190915055600783908060018154018082558091505060019003906000526020600020016000909190919091509081610bb791906114da565b50600882908060018154018082558091505060019003906000526020600020016000909190919091509081610bec91906114da565b50600981908060018154018082558091505060019003906000526020600020016000909190919091509081610c2191906114da565b50600b6000908060018154018082558091505060019003906000526020600020016000909190919091505550505050565b60005b600a80549050811015610cbe5782600a8281548110610c7757610c766111f4565b5b906000526020600020015403610cab5781600b8281548110610c9c57610c9b6111f4565b5b90600052602060002001819055505b8080610cb690611252565b915050610c55565b505050565b6000604051905090565b600080fd5b600080fd5b6000819050919050565b610cea81610cd7565b8114610cf557600080fd5b50565b600081359050610d0781610ce1565b92915050565b60008060408385031215610d2457610d23610ccd565b5b6000610d3285828601610cf8565b9250506020610d4385828601610cf8565b9150509250929050565b600081519050919050565b600082825260208201905092915050565b6000819050602082019050919050565b600081519050919050565b600082825260208201905092915050565b60005b83811015610db3578082015181840152602081019050610d98565b60008484015250505050565b6000601f19601f8301169050919050565b6000610ddb82610d79565b610de58185610d84565b9350610df5818560208601610d95565b610dfe81610dbf565b840191505092915050565b6000610e158383610dd0565b905092915050565b6000602082019050919050565b6000610e3582610d4d565b610e3f8185610d58565b935083602082028501610e5185610d69565b8060005b85811015610e8d5784840389528151610e6e8582610e09565b9450610e7983610e1d565b925060208a01995050600181019050610e55565b50829750879550505050505092915050565b600081519050919050565b600082825260208201905092915050565b6000819050602082019050919050565b610ed481610cd7565b82525050565b6000610ee68383610ecb565b60208301905092915050565b6000602082019050919050565b6000610f0a82610e9f565b610f148185610eaa565b9350610f1f83610ebb565b8060005b83811015610f50578151610f378882610eda565b9750610f4283610ef2565b925050600181019050610f23565b5085935050505092915050565b600060c0820190508181036000830152610f778189610e2a565b90508181036020830152610f8b8188610e2a565b90508181036040830152610f9f8187610e2a565b90508181036060830152610fb38186610e2a565b90508181036080830152610fc78185610eff565b905081810360a0830152610fdb8184610eff565b9050979650505050505050565b600080fd5b600080fd5b7f4e487b7100000000000000000000000000000000000000000000000000000000600052604160045260246000fd5b61102a82610dbf565b810181811067ffffffffffffffff8211171561104957611048610ff2565b5b80604052505050565b600061105c610cc3565b90506110688282611021565b919050565b600067ffffffffffffffff82111561108857611087610ff2565b5b61109182610dbf565b9050602081019050919050565b82818337600083830152505050565b60006110c06110bb8461106d565b611052565b9050828152602081018484840111156110dc576110db610fed565b5b6110e784828561109e565b509392505050565b600082601f83011261110457611103610fe8565b5b81356111148482602086016110ad565b91505092915050565b6000806000806080858703121561113757611136610ccd565b5b600085013567ffffffffffffffff81111561115557611154610cd2565b5b611161878288016110ef565b945050602085013567ffffffffffffffff81111561118257611181610cd2565b5b61118e878288016110ef565b935050604085013567ffffffffffffffff8111156111af576111ae610cd2565b5b6111bb878288016110ef565b925050606085013567ffffffffffffffff8111156111dc576111db610cd2565b5b6111e8878288016110ef565b91505092959194509250565b7f4e487b7100000000000000000000000000000000000000000000000000000000600052603260045260246000fd5b7f4e487b7100000000000000000000000000000000000000000000000000000000600052601160045260246000fd5b600061125d82610cd7565b91507fffffffffffffffffffffffffffffffffffffffffffffffffffffffffffffffff820361128f5761128e611223565b5b600182019050919050565b7f4e487b7100000000000000000000000000000000000000000000000000000000600052602260045260246000fd5b600060028204905060018216806112e157607f821691505b6020821081036112f4576112f361129a565b5b50919050565b600061130582610cd7565b915061131083610cd7565b925082820190508082111561132857611327611223565b5b92915050565b60008190508160005260206000209050919050565b60006020601f8301049050919050565b600082821b905092915050565b6000600883026113907fffffffffffffffffffffffffffffffffffffffffffffffffffffffffffffffff82611353565b61139a8683611353565b95508019841693508086168417925050509392505050565b6000819050919050565b60006113d76113d26113cd84610cd7565b6113b2565b610cd7565b9050919050565b6000819050919050565b6113f1836113bc565b6114056113fd826113de565b848454611360565b825550505050565b600090565b61141a61140d565b6114258184846113e8565b505050565b5b818110156114495761143e600082611412565b60018101905061142b565b5050565b601f82111561148e5761145f8161132e565b61146884611343565b81016020851015611477578190505b61148b61148385611343565b83018261142a565b50505b505050565b600082821c905092915050565b60006114b160001984600802611493565b1980831691505092915050565b60006114ca83836114a0565b9150826002028217905092915050565b6114e382610d79565b67ffffffffffffffff8111156114fc576114fb610ff2565b5b61150682546112c9565b61151182828561144d565b600060209050601f8311600181146115445760008415611532578287015190505b61153c85826114be565b8655506115a4565b601f1984166115528661132e565b60005b8281101561157a57848901518255600182019150602085019450602081019050611555565b868310156115975784890151611593601f8916826114a0565b8355505b6001600288020188555050505b50505050505056fea2646970667358221220d5c91a4b04b10b96fd57d743787a03b5a5f1a8fe3d4aa0ea29384d50129a46a464736f6c63430008130033",
  "immutableReferences": {},
  "source": "// SPDX-License-Identifier: MIT\npragma solidity >=0.4.22 <0.9.0;\n\ncontract supplychain {\n  // retailer products info\n  string[] _rproducts;\n  string[] _rquantity;\n  string[] _rprice;\n  uint[] _roderids;\n  uint[] _rstatuses;\n  string[] _retailers;\n\n  string[] _consumers;\n  string[] _cproducts;\n  string[] _cquantity;\n  string[] _cretailer;\n  uint[] _corderids;\n  uint[] _cstatuses;\n\n  uint rorderid=0;\n  uint corderid=0;\n\n  function raddOrder(string memory retailer,string memory rproduct,string memory rquantity,string memory rprice) public {\n    rorderid+=1;\n    _retailers.push(retailer);\n    _roderids.push(rorderid);\n    _rproducts.push(rproduct);\n    _rquantity.push(rquantity);\n    _rprice.push(rprice);\n    _rstatuses.push(0);\n  }\n\n  function rviewOrders() public view returns(string[] memory,string[] memory,string[] memory, string[] memory, uint[] memory,uint[] memory) {\n    return(_retailers,_rproducts,_rquantity,_rprice,_roderids,_rstatuses); \n  }\n\n  function rupdateOrder(uint orderid,uint status) public {\n    uint i;\n\n    for(i=0;i<_roderids.length;i++){\n      if (_roderids[i]==orderid){\n        _rstatuses[i]=status;\n      }\n    }\n  }\n\n  function caddOrder(string memory cemail,string memory cproduct,string memory cquantity,string memory cretailer) public {\n    corderid+=1;\n    _consumers.push(cemail);\n    _corderids.push(corderid);\n    _cproducts.push(cproduct);\n    _cquantity.push(cquantity);\n    _cretailer.push(cretailer);\n    _cstatuses.push(0);\n  }\n\n  function cviewOrders() public view returns(string[] memory,string[] memory,string[] memory, string[] memory, uint[] memory,uint[] memory) {\n    return(_consumers,_cproducts,_cquantity,_cretailer,_corderids,_cstatuses); \n  }\n\n  function cupdateOrder(uint orderid,uint status) public {\n    uint i;\n\n    for(i=0;i<_corderids.length;i++){\n      if (_corderids[i]==orderid){\n        _cstatuses[i]=status;\n      }\n    }\n  }\n}\n",
  "sourcePath": "D:\\farmer-supplychain-kits-main\\farmer-supplychain-kits-main\\contracts\\supplychain.sol",
  "compiler": {
    "name": "solc",
    "version": "0.8.19+commit.7dd6d404.Emscripten.clang"
  },
  "schemaVersion": "3.4.16",
  "updatedAt": "2024-04-25T10:39:00.450Z",
  "networkType": "ethereum",
  "devdoc": {
    "kind": "dev",
    "methods": {},
    "version": 1
  },
  "userdoc": {
    "kind": "user",
    "methods": {},
    "version": 1
  }
}